:020000040000FA
:100000000C941A030C9442030C9442030C94420384
:100010000C9442030C9442030C9442030C9442034C
:100020000C9442030C9442030C9420080C948F0807
:100030000C9442030C9442030C9442030C9442032C
:100040000C9442030C9442030C9442030C9442031C
:100050000C9442030C9442030C9442030C94C10A86
:100060000C9442030C9442030C9442030C944203FC
:100070000C9442030C9442030C9442030C944203EC
:100080000C940B0B0C9442030C9442030C9442030B
:100090000C9442030C9442030C9442030C944203CC
:1000A0000C9442030C9442030C94420300000000A1
:1000B000003E5B4F5B3E3E6B4F6B3E1C3E7C3E1CEE
:1000C000183C7E3C181C577D571C1C5E7F5E1C0034
:1000D000183C1800FFE7C3E7FF0018241800FFE7EB
:1000E000DBE7FF30483A060E2629792926407F05AE
:1000F0000507407F05253F5A3CE73C5A7F3E1C1CC4
:1001000008081C1C3E7F14227F22145F5F005F5F83
:1001100006097F017F006689956A6060606060946F
:10012000A2FFA29408047E040810207E2010080874
:100130002A1C08081C2A08081E101010100C1E0C7F
:100140001E0C30383E3830060E3E0E060000000011
:100150000000005F00000007000700147F147F14F8
:10016000242A7F2A1223130864623649562050003D
:1001700008070300001C2241000041221C002A1C29
:100180007F1C2A08083E0808008070300008080814
:100190000808000060600020100804023E51494534
:1001A0003E00427F400072494949462141494D3352
:1001B0001814127F1027454545393C4A49493141B9
:1001C000211109073649494936464949291E000087
:1001D00014000000403400000008142241141414DC
:1001E0001414004122140802015909063E415D59C8
:1001F0004E7C1211127C7F494949363E41414122D1
:100200007F4141413E7F494949417F090909013EFA
:10021000414151737F0808087F00417F4100204021
:10022000413F017F081422417F404040407F021C33
:10023000027F7F0408107F3E4141413E7F0909094A
:10024000063E4151215E7F09192946264949493216
:1002500003017F01033F4040403F1F2040201F3FDC
:100260004038403F63140814630304780403615961
:10027000494D43007F4141410204081020004141A3
:10028000417F04020102044040404040000307084F
:100290000020545478407F2844443838444444284B
:1002A000384444287F385454541800087E090218F2
:1002B000A4A49C787F0804047800447D400020407A
:1002C000403D007F1028440000417F40007C0478BE
:1002D00004787C080404783844444438FC18242406
:1002E0001818242418FC7C08040408485454542486
:1002F00004043F44243C4040207C1C2040201C3C03
:100300004030403C44281028444C9090907C4464F9
:10031000544C44000836410000007700000041368C
:10032000080002010204023C2623263C1EA1A16112
:10033000123A4040207A3854545559215555794144
:100340002154547841215554784020545579400C1B
:100350001E527212395555555939545454593955FC
:100360005454580000457C410002457D420001453F
:100370007C40F0292429F0F0282528F07C545545AC
:10038000002054547C547C0A097F4932494949323F
:100390003248484832324A4848303A4141217A3A54
:1003A00042402078009DA0A07D39444444393D401E
:1003B00040403D3C24FF2424487E4943662B2FFCCB
:1003C0002F2BFF0929F620C0887E09032054547979
:1003D000410000447D413048484A32384040227A4A
:1003E000007A0A0A727D0D19317D2629292F2826C7
:1003F0002929292630484D402038080808080808CF
:100400000808382F10C8ACBA2F102834FA00007B27
:10041000000008142A142222142A1408950022002D
:1004200095AA005500AAAA55AA55AA000000FF00E7
:10043000101010FF00141414FF001010FF00FF1024
:1004400010F010F0141414FC001414F700FF000056
:10045000FF00FF1414F404FC141417101F10101FD5
:10046000101F1414141F00101010F0000000001FC3
:10047000101010101F10101010F010000000FF10CE
:100480001010101010101010FF10000000FF1400CA
:1004900000FF00FF00001F10170000FC04F41414FC
:1004A0001710171414F404F40000FF00F7141414C8
:1004B00014141414F700F7141414171410101F1048
:1004C0001F141414F4141010F010F000001F101F6B
:1004D0000000001F14000000FC140000F010F010D9
:1004E00010FF10FF141414FF141010101F00000050
:1004F00000F010FFFFFFFFFFF0F0F0F0F0FFFFFF54
:100500000000000000FFFF0F0F0F0F0F38444438AA
:10051000447C2A2A3E147E02020606027E027E02E5
:1005200063554941633844443C04407E201E200604
:10053000027E020299A5E7A5991C2A492A1C4C7241
:1005400001724C304A4D4D303048784830BC625AC8
:10055000463D3E494949007E0101017E2A2A2A2A58
:100560002A44445F444440514A444040444A514034
:100570000000FF0103E080FF000008086B6B0836F5
:1005800012362436060F090F060000181800000066
:100590001010003040FF0101001F01011E00191D55
:1005A0001712003C3C3C3C0000000000D5F08D14CC
:1005B000A1C881CFD9F1AF2000C0A0D92181FFA867
:1005C00000A800A83F080B00020202000009040076
:1005D00000010202000005240010010524010101B0
:1005E00004240206052406000107058103100040CB
:1005F00009040100020A0000000705020240000091
:10060000070583024000000403090412010002EF01
:10061000020140412336800001010203014172645E
:1006200075696E6F204C4C430041726475626F793E
:100630000000550B11241FBECFEFDAE0DEBFCDBFA7
:1006400011E0A0E0B1E0EEE1FBE102C005900D9207
:10065000A235B107D9F725E0A2E5B1E001C01D92AE
:10066000A33DB207E1F713E0CAE1D3E004C021974C
:10067000FE010E94870DC931D107C9F70E946A0B9C
:100680000C948D0D0C9400002F923F924F925F922C
:100690006F927F928F929F92AF92BF92CF92DF9292
:1006A000EF92FF920F931F93CF93DF9300D000D070
:1006B000CDB7DEB76A01E62E43E0442EA3E8B1E0F1
:1006C000F22FBB24682E969596959695E1E001FD54
:1006D000E4E000FDEE0F02FDE2955FEF5E9F10018A
:1006E00020943094159507951595079515950795C0
:1006F000402F4F3F4CF44095941B40FC440F489FC3
:10070000C00CD11CEB1C4FEF37FF0BC0620E40FE3C
:1007100002C0220F331FC21AD30AEB0837FDE3943D
:10072000FF2750E845030F0EA00DB11D5F1B651696
:1007300008F0652E57E0541B591714F4952FB39405
:1007400050E85619682F772741FC02C06619770BCD
:1007500040FE02C0660F771F1124A42EFE2E0090CB
:100760008101D00C00908201E01C19C0599843E02F
:100770004EBDC60ED71EE11C7724861509F0739472
:100780000CD0EEBC07D0DEBC05D0CEBC03D01EBC66
:1007900003D00895C8950000C895C8950895C61A55
:1007A000D70AE108E3DFA1141CF0992371F564C0B6
:1007B000A058BF4F962C40FC0CC02EB51EBC2F9DE0
:1007C0008C90832081288D92C89500C09A94A9F7B7
:1007D00011C02EB51EBC2F9D9001DEDF2EB41EBCB5
:1007E0002F9C10018C9030948320832A8D92C89581
:1007F0009A9479F71124A619B1099A9509F45CC065
:10080000772019F00DB4599AB1DFFD01E058FF4F80
:10081000962C40FC0EC02EB51EBC2F9D8C908220C5
:1008200080288D9280808320812881929A9499F7E4
:1008300016C02EB51EBC2F9D90018C903080AEDF6F
:1008400000C02EB41EBC2F9C00948020822A8D9262
:1008500010943120332A319200009A9451F71124D8
:10086000A50FB11D9A9561F6BB2031F1772021F0DB
:100870000DB4599A7BDFC89540FC0CC02EB51EBC48
:100880002F9D8C90822080288D92C89500C06A94FC
:10089000A9F712C02EB51EBC2F9D90017DDF9EB51D
:1008A0001EBC9F9D902D8C9090958922822A8D92BE
:1008B000C8956A9479F7C8951124599A0DB40F9088
:1008C0000F900F900F90DF91CF911F910F91FF909C
:1008D000EF90DF90CF90BF90AF909F908F907F90E0
:1008E0006F905F904F903F902F9008956F927F92FE
:1008F0008F92CF92DF92EF92FF920F931F93FC01A2
:10090000922F842F3701802E33E0C114D104A1F03F
:1009100026952695269530FD220F249FD001AD9D6A
:10092000700C811CBC9D700C811CBD9D800CAC9D0D
:10093000600C711C1124811C8B019F01682DA30187
:100940000E9444031F910F91FF90EF90DF90CF9092
:100950008F907F906F900895FC0180918001882393
:1009600011F13FB7F89482E08093E9002091F20002
:10097000822F90E01816190614F481E090E0882385
:1009800039F0289844E640937F014091F10040837C
:10099000222339F02091F200211103C02BE620938D
:1009A000E8003FBF08958FEF9FEF08952FB7F894A9
:1009B00083E08093E9009091E800892F807295FF91
:1009C00004C09091F20080E4891B2FBF08958091AC
:1009D000770181110DC082E08093730184E08093E0
:1009E0007401109276011092750181E08093770175
:1009F00083E791E00895CF93DF931F92CDB7DEB7E1
:100A00006983DC01ED91FC910280F381E02D41E0EE
:100A100050E0BE016F5F7F4F09950F90DF91CF913E
:100A2000089583E08093E9008091F200882319F013
:100A30008AE38093E80008950E94D60490E0089528
:100A4000CF93DF931F92CDB7DEB7FC0184859585E8
:100A500097FD08C02FEF3FEF358724870F90DF9178
:100A6000CF910895CE0101960E94AC04019719F42C
:100A7000898190E0F3CF8FEF9FEFF0CF0F931F931B
:100A8000CF93DF931F92CDB7DEB78C01FC01848535
:100A9000958597FF0BC0CE0101960E94AC0401978B
:100AA00071F4898190E0F80195878487F801848545
:100AB00095850F90DF91CF911F910F9108958FEF42
:100AC0009FEFF1CFFC018485958597FD0BC09FB703
:100AD000F89482E08093E9008091F2009FBF90E05B
:100AE000019608959FB7F89482E08093E900809181
:100AF000F2009FBF90E0089540916D0150916E010A
:100B000020916B0130916C0142175307B4F490911E
:100B1000E8009570E1F39091E80092FD19C0809390
:100B2000F10080916D0190916E0101968F7399276C
:100B3000892B19F48EEF8093E80080916D019091DC
:100B40006E01019690936E0180936D0181E008958E
:100B500080E00895DF92EF92FF920F931F93CF935F
:100B6000DF93D82E8A01EB017B01E40EF51ECE1532
:100B7000DF0559F0D7FE12C0FE0184910E947C056A
:100B800021968111F4CF0FEF1FEFC801DF91CF91B4
:100B90001F910F91FF90EF90DF9008958881EECF25
:100BA0000F931F93CF93DF931F92CDB7DEB782E0F1
:100BB000898342E450E065EC75E080E80E94AA0574
:100BC0000E94E704DC0112960D911C91011511059C
:100BD00089F0D801ED91FC910280F381E02DBE01F6
:100BE0006F5F7F4FC801099597FD04C0F80100852C
:100BF0001185ECCF89810F90DF91CF911F910F91DB
:100C00000895615030F02091F100FC01208301969D
:100C1000F8CF289884E680937F010895811105C05C
:100C200081E0611106C080E004C0813019F46230B7
:100C3000D0F3089581E06330E0F7F5CFAF92BF9233
:100C4000CF92DF92EF92FF920F931F93CF93DF9398
:100C50006C017B018B01040F151FEB015E01AE18C7
:100C6000BF08C017D10759F06991D601ED91FC91E9
:100C70000190F081E02DC6010995892B79F7C50116
:100C8000DF91CF911F910F91FF90EF90DF90CF9068
:100C9000BF90AF9008958FB18095807F669B8860EC
:100CA0001C9B8460089590E1282F81E061FD84E021
:100CB00060FD880F62FD8295687F969FD0011124A8
:100CC000A20FAD57BE4F0C90082A40FF08260C9289
:100CD00008950DB407FEFDCF8EB5599A08950DB451
:100CE00007FEFDCF8EB51EBC089559980E948D0653
:100CF000862F0E948D06852F0E948D06842F0C94CE
:100D00008D06462F50918101570F60918201681F17
:100D100083E00E9475061EBC08958EBD00008EB54E
:100D20000DB407FEFCCF0895FC010E942F073197F8
:100D300028F068517C4F8F4F9F4FF9CFAB01FC01DA
:100D40000E942F07641775078E079F07C8F3089541
:100D500085E090E00C9494068F929F92AF92BF92A0
:100D6000CF92DF92EF92FF920F931F93CF93DF9377
:100D70006C017B018A0180910E01882309F45AC01D
:100D800080918001882309F455C08091720180FF11
:100D900005C08091E00082608093E000E801B12C02
:100DA0008AEFA82E93E0892E2AE3922E209711F441
:100DB000BB20C9F10E94D604811108C0AA94AA20C0
:100DC000C9F181E090E00E949406F0CF8C171D06D7
:100DD00011F00CF08C2F9FB7F8948092E9002091CD
:100DE000E80025FD02C09FBFE1CF282F30E0C21BE5
:100DF000D30BF701815020F041914093F100FACFDD
:100E0000E20EF31EBB2021F09092E800B12CEBCF54
:100E10008091E80085FDE7CF9092E800BB24B39471
:100E2000209709F3F3CF5D9884E680937101101643
:100E300011063CF081E090E0F6019383828310E09C
:100E400000E0C801DF91CF911F910F91FF90EF90CB
:100E5000DF90CF90BF90AF909F908F900895ACE5BA
:100E6000B1E02FB7F8947D918D919C9166B52FBF1D
:100E7000A89B05C06F3F18F47F5F8F4F9F4F22E004
:100E8000660F771F881F991F2A95D1F708956F92D3
:100E90007F928F929F92AF92BF92CF92DF92EF920A
:100EA000FF920F931F93CF93DF936D3081F00091EA
:100EB0005201109153016A30D9F4109255011092E9
:100EC0005401085F1F4F109353010093520181E0BA
:100ED00090E0DF91CF911F910F91FF90EF90DF9005
:100EE000CF90BF90AF909F908F907F906F9008951C
:100EF000C62FE0905401F0905501D0916A016091A5
:100F000000018D2F0E940E06782E60E08D2F0E942A
:100F10000E06682E78122FC0672D8D2F0E940E06A8
:100F2000782E570126E0A20EB11CE701480188E0A7
:100F3000880E911CCA15DB0509F44FC0680117FF24
:100F400002C0D12CC12CC401E1E48E16910414F02E
:100F500080E490E0C816D90664F4C038D10528F4BE
:100F6000472DB601CE010E945306FFEFCF1ADF0ACC
:100F7000EACF2196DFCF25E0C29FE0011124C455BE
:100F8000DF4F5701D12C85E0C12CD81629F0CE01B6
:100F90000196FE01C490EC01912C812C462DC0FCE1
:100FA000472DF0E8AF16B10448F4B801680D791D7B
:100FB0006034710518F4C5010E945306C6942FEFE2
:100FC000821A920A88E08816910441F7D394EFEFD1
:100FD000AE1ABE0AF6E0DF12D6CF26E0E20EF11C12
:100FE000F0925501E092540172CF30E73CBDDC0134
:100FF00030E8439FC0011124A80FB91F5E91352F1F
:101000006111372F3C93C89500C052235EBD0197F4
:10101000A9F704D003D030E50DB43CBD08955C9829
:10102000FC012591CF012EBD00000DB407FEFDCFC0
:101030006150B1F75C9A0895089590E080E00895BA
:101040001F920F920FB60F9211248F939F9380914E
:10105000E1009091E100937F9093E10083FF0FC046
:101060001092E90091E09093EB001092EC0092E373
:101070009093ED001092800198E09093F00082FF31
:1010800022C093E09093E9009091F200992319F027
:101090009AE39093E80090917101992341F0909127
:1010A0007101915090937101911101C05D9A9091DD
:1010B0007F01992341F090917F01915090937F019E
:1010C000911101C0289A84FF18C08091E2008E7EA1
:1010D00081608093E2008091E1008F7E8093E10047
:1010E000809172018E7E8061809372019F918F91B9
:1010F0000F900FBE0F901F90189580FFF7CF809133
:10110000E2008E7E80618093E2008091E1008E7E1D
:101110008093E100809172018E7E8160E5CF1F9205
:101120000F920FB60F921124CF92DF92EF92FF929F
:101130000F931F932F933F934F935F936F937F93DF
:101140008F939F93AF93BF93EF93FF93CF93DF93CF
:10115000CDB7DEB76C97DEBFCDBF1092E9008091AE
:10116000E80083FF25C068E0CE0145960E94010695
:1011700082EF8093E8008D8987FF39C09091E80065
:1011800090FFFCCF982F907609F034C19E894F894B
:10119000588D2F89F88C911131C0803861F580917C
:1011A00070018093F1001092F1008EEF8093E800BF
:1011B0006C960FB6F894DEBF0FBECDBFDF91CF9116
:1011C000FF91EF91BF91AF919F918F917F916F911F
:1011D0005F914F913F912F911F910F91FF90EF9051
:1011E000DF90CF900F900FBE0F901F9018959EEF3D
:1011F0009093E800C7CF1092F100D5CF913059F409
:101200008111D3CF4130510581F6809170018D7FDE
:1012100080937001CACF933049F48111C6CF413019
:10122000510519F6809170018260F2CF953041F43A
:101230008091E80080FFFCCF20682093E300B5CFC9
:10124000963009F0A9C00B8D1C8D22E01092E900A8
:1012500010926E0110926D01F2122EC010926C016C
:1012600010926B010E94D0051F8299E09983FA8247
:1012700091E09E8390EA98879AEF998720916D017B
:1012800030916E01275F3F4F3C832B838D831092FB
:10129000E90010926E0110926D0110936C010093A1
:1012A0006B0149E050E0BE016F5F7F4F80E00E941C
:1012B000AA050E94D00579CF10936C0100936B01B1
:1012C0000E94E704DC0112960D911C910115110595
:1012D00009F451C1D801ED91FC910480F581E02D14
:1012E000BE016B5E7F4FC8010995009709F03EC1B2
:1012F000F80100851185EACFF3E0FF120EC08F8957
:10130000882309F440C0823061F440E867E089E254
:1013100096E00E94220B811148CF81E28093EB007E
:1013200047CF813029F440E86BE08DE196E0F1CFC2
:10133000833099F70E94E704DC011296ED90FC904F
:101340008E010F5F1F4F6801E114F10479F0D7019E
:10135000ED91FC910680F781E02DB801C701099558
:10136000080F111DF701E084F184EECFD8011C9223
:10137000F60101900020E9F73197BF016C197D0952
:1013800040E0C601C6CF67E076E0FB01449150E043
:1013900080E80E94AA0509CF973009F4BECF9830A3
:1013A00021F481E08093F10000CF993009F0FDCE67
:1013B000837009F0B2CFEAE3F1E081E031E096E337
:1013C0002191222371F08093E9003093EB00DF013B
:1013D00011972C912093EC009093ED008F5F873054
:1013E00079F78EE78093EA001092EA008F89809364
:1013F0008001DBCE8B8D9C8D1092E90010926E01E6
:1014000010926D0190936C0180936B01898D811115
:1014100092C08E899D89913A49F4813209F07DCF3D
:1014200047E050E067E071E080E0B3CF913209F02F
:1014300074CF833269F48F89988DB0E0A0E08093F7
:10144000030190930401A0930501B0930601ADCE72
:10145000803269F48091E80082FFFCCF67E087E08A
:1014600091E00E9401068BEF8093E8009ECE8232CD
:1014700009F09BCE8F8980930E01EEEFFFE78591F7
:1014800094918B3F9C4D51F1E0E0F8E08091070191
:1014900090910801A0910901B0910A01803B94400C
:1014A000A105B105F1F480910E0180FD1AC0EE3F57
:1014B0008AE0F80789F587E797E791838083809131
:1014C000600080936F0188E19BE00FB6F894A895C7
:1014D000809360000FBE9093600067CEEEEFFAE05D
:1014E000D5CF808191818737974709F05ECEA89547
:1014F0008091600088618093600080916F0180938B
:101500006000EE3F2AE0F20789F08091FE0A909198
:10151000FF0A9183808349CE808191818737980724
:1015200051F29093FF0A8093FE0AC5CF1092FF0AF2
:101530001092FE0A3ACE0E94E704DC0112960D9149
:101540001C910115110509F4E8CED801ED91FC912B
:101550000190F081E02DBE016B5E7F4FC8010995BF
:10156000811123CEF80100851185EBCF18161906DD
:101570000CF41BCED2CEF1E0FF12BECE6BE076E0D3
:1015800004CF0F920FB68F939F93EF93FF938091A9
:1015900057018D5F8D3708F08D5780935701E8E52F
:1015A000F1E080818E4F808391819F4F9183828172
:1015B0008F4F828383818F4F8383ECE5F1E08081BD
:1015C0008F5F808381818F4F818382818F4F828360
:1015D00083818F4F83838FB18F6066991C9B88278F
:1015E0008F3681F480915601981B963068F0E0E0C8
:1015F000F8E087E78083818388E180936000F0933F
:101600006000FFCF90935601FF91EF919F918F91D2
:101610000FBE0F9018951F920F920FB60F921124C4
:101620008F939F9382E496E0909399008093980023
:1016300081E0809362019F918F910F900FBE0F9078
:101640001F901895EF92FF920F931F93CF93DF9304
:10165000F82E192FE62E042F81E0860F880F0E94A6
:101660007C0583E00E947C05CF2DD12FEC0EFD2E52
:10167000F11CCE15DF05B9F007FF13C0FE01849100
:101680000E947C05182F80E00E947C058123219612
:101690008111EFCFDF91CF911F910F91FF90EF90CC
:1016A00008958881EDCF81E0F5CFE3E8F5E013827E
:1016B000128288EE93E0A0E0B0E084839583A68355
:1016C000B78384E491E0918380838FEF9FEF9587C8
:1016D0008487089500D000D0CDB7DEB7789483E03A
:1016E00084BD83E085BD81E080936E00E1E8F0E099
:1016F00083E08083E0E881E08083E1E983E0808328
:10170000E0E981E08083E1EC87E08083E3EC81E045
:101710008083E0EC82E08083E2EC81E08083EAE792
:1017200087E080838068808310928001109270012E
:10173000109272018091D70081608093D70080EA77
:101740008093D80089B5806189BD89B5826089BDE3
:1017500009B400FEFDCF81E090E00E9494068091E4
:10176000D8008F7C80618093D8008091E000807FDA
:101770008093E0008091E1008E7E8093E1008DE017
:101780008093E200559A209A81EC80937C0081EF4F
:1017900085B987EE84B982E38BB982EF8AB9769AEC
:1017A0006E9880EF81BB10BA80E58CBD81E08DBD65
:1017B0000E94A8065F9A0E94A8065C98ECEAF5E0F1
:1017C00085918EBD00000DB407FEFDCFE93BC1F74A
:1017D0005C9A81E88093640081E08093650068E012
:1017E00089EB95E00E940F082FB7F89482E496E009
:1017F000909399008093980093E0909390008BE1F0
:101800008093910010929500109294008091710045
:101810008260809371002FBF909300015E9AE4E193
:10182000F0E088EB9FEF60EF7FEF259135915591C8
:1018300045912851354909F4CA018093810190935B
:10184000820125913591559145912851354909F4E9
:10185000BA01609360017093610159988BEA0E940C
:101860008D06599A5E98F89480916201811109C0A1
:1018700083B7816083BF7894889583B78E7F83BF59
:10188000F2CF10926201789420916A0129832FE7A8
:1018900041E050E061E070E083E095E00E94F507F0
:1018A00062E083EC95E00E940F082FEF47E051E0E3
:1018B00061E070E083E891E00E94F50762E081EC6E
:1018C00095E00E940F08898182508E3F08F49EC0E7
:1018D00039813F5F3983898180936A015E9A809163
:1018E0006301882379F08150809363010E944B0645
:1018F0008093640180916901882309F48EC081304E
:1019000009F49BC0C0906A0180916901882309F4A1
:10191000D6C0813009F0F0C03FE0232E31E0332EF5
:101920001C821B828C2D90E09A83898380916701B1
:10193000909168018B809C80881A990AC401409616
:101940008135910508F052C0512C412CB12CA12CAD
:1019500080916501909166013201681A790AC3018C
:10196000409681399105B8F5F101EA0DFB1DC08063
:1019700060E070E080E00E9481060E946F06182FF0
:101980000E94690690E86916710429F120E4821624
:10199000910409F19301210F311D12161306DCF495
:1019A0009401280F311D12161306ACF44C2D50E093
:1019B0006A01CC0CDD1CC40ED51E29813A81C20EF1
:1019C000D31E02E0E02EF12C00E0282F412FB401BD
:1019D000C3010E9476043FEFA31AB30A80E1480EC8
:1019E000511C97E0A916B10409F0B2CF2B813C81BC
:1019F000205F3F4F3C832B8337E0230E311C8B81CC
:101A00009C818036910509F091CF76C08091630169
:101A10008F5F8093630119825ECF80910101909165
:101A20000201009731F00197909302018093010128
:101A300069CF91E09093690165CF0E944B0685FFC5
:101A40000CC08091650190916601181619062CF45E
:101A5000019790936601809365010E944B0686FF73
:101A60000DC08091650190916601803F2FEF920734
:101A70002CF4019690936601809365010E944B06B9
:101A800087FF0CC0809167019091680118161906B4
:101A90002CF4019790936801809367010E944B0694
:101AA00084FF32C080916701909168018032910576
:101AB0005CF50196909368018093670123CF62E8FB
:101AC0007FE180E00E9481060E946F0689830E9468
:101AD00069063981332381F0882371F0D12C04E821
:101AE000E02E0FE1F02E00E0282F432F70E060E0A1
:101AF00090E080E00E94760420E030E0232B09F49F
:101B0000B1CE0E940000AECEC0906A0105CFEE0FAC
:101B1000FF1F0590F491E02D0994F894FFCF014B3D
:101B200000FFFFFFFF00E1000000000000000102D5
:101B3000030405060708090A0B0C0D0E0F101112FD
:101B4000131415161718191A1B1C1D1E1F202122ED
:101B50002324252627282900C180810000000000B9
:101B60000000FB04AC061C051105620520053E05BE
:1074000080E189BD82E189BD09B400FEFDCF089508
:10741000C8D569F08091E9008F931092E9009DD45E
:1074200083FF01C01CD58F9187708093E900089578
:107430008EEF0090E10008220092E1000895F20131
:10744000F999FECFF2BDE1BD0895F9DFF89A80B554
:1074500008C0F5DF1FBA80BD0FB6F894FA9AF99A02
:107460000FBE31962F010895E0E0F0E085919491F0
:107470000196089580EE8BB98BEA34D01092890082
:107480008AEF8093880082E080936F0083E080938E
:107490008100E7E5F7E785913AD0E336E1F781E04F
:1074A0008093D7008AE482BF1092D8001092E20045
:1074B0001092DA001092E10080E808D019BC1EBAE0
:1074C0001092E00060D489E051D481E98093D80023
:1074D0000895A3E6B1E090E81AD08D939A95E1F76C
:1074E000089586E008D010C083E005D08F2F0FD01C
:1074F0008E2F0DD080E05E9A599809C005D085E0A6
:10750000FADF05D080FDFDCF599A5E9808958EBDB3
:107510008DB587FFFDCF8EB508958FE08221E9F705
:10752000F3DFE3E6F6E090EB5C98892FF0DF80E193
:10753000EEDF5C9A8191EBDF83E68E278F77D1F7C0
:107540009395983B89F70895E3E6F1E097FC36C000
:1075500094FC4DC092FE089596849920D1F3F8943E
:10756000C089D78520E030E080E090E4AFEFBFEF46
:10757000119689199040E0F72D01BD4F8D0127FD2F
:1075800013C0E0E0F8E011928EE7819392E4E117F6
:1075900091939AE508F092E4E334C9F7819310825D
:1075A000BFDFFE012196A0DF94DFF901FDD4205852
:1075B0003F4F040D151D9A9411F710C28301282D19
:1075C00060906C0170906B0143D019F48823C1F76F
:1075D0000895380188243CD0C9F580916A0182174A
:1075E00009F4830160906E0170906D01F4CF80E129
:1075F000982E60906E0170906D012AD059F4882306
:10760000B1F708959FEF95FC03C096FE089591E0B1
:1076100097FB890E662477248301222719D0B1F4C1
:107620008823A1F380916A0136F0881650F48217FE
:1076300030F0213003C0881520F4281710F483019E
:10764000282F60906E0170906D01E8CF3801822E76
:10765000F3014ADF3EDFC3E6D1E0E0E5F7E709905A
:107660008591081621F4E735D1F7088080104CCFBA
:10767000C9E031DFCA95E9F7D0E197FC55C094FC29
:1076800037C096FE1AC0C3E6D2E0E3E6F6E098E023
:1076900088E78E0F00840192E817E1F7884F099080
:1076A0000192E817E1F7C858DF4F9A9589F735DF5F
:1076B000C85FD340C33E49F749C0C3E6D6E0EBE517
:1076C000FAE098E08E2F885702900086E817E1F7DD
:1076D00038960A900292E817E1F73897C857D040D9
:1076E0009A9581F71ADFC850DC4FC33E41F72EC090
:1076F000A3EEB6E0E3E6F6E09AE0C6E00D90808106
:107700008025807F802582958193A336B90709F46F
:10771000B2E0E336F90709F4F2E0E336FC0771F76B
:10772000FCDEDA9529F712C0A3EEB9E0E3E6FAE051
:1077300092E00E90829180258F70802582958083C3
:10774000E336F907B1F7E9DEDA9571F7882708958E
:1077500041524455424F59D5F08D14A1C881CFD91B
:10776000F1AF000000FFFFCFCFFFFFFFFFCFCFFF44
:10777000FF0000FE067E7E06FE46565616FE0656A4
:10778000461EFE3F61E9E3FFE3EBE3FFE3EBE3FFCC
:10779000E16B3F0012011001020000084123360096
:1077A00001000000000109023E00020100803209D0
:1077B000040000010202010005240010010424025B
:1077C000040524060001070582030800FF090401DF
:1077D00000020A00000007050402100001070583EB
:0477E0000210000192
:1078000011241FBE04B714BE88E18093600010925B
:1078100060008EEF9AE09EBF8DBF222433242101A9
:107820003101410180E88AC00F928F939F931F928C
:107830000FB60F9211244F936F938091DA0080FF5F
:1078400037C023C00F920FB68F939F93EF93FF9390
:1078500088278093850080938400E0E5F1E09281A1
:10786000907261F490818917980B908309F45D9A66
:1078700091818917980B918309F4289A239411F424
:107880008315381EFF91EF9154C08091D80080FF7E
:107890000FC08091DA008E7F8093DA008091D9004A
:1078A00080FF04C0ADDD81E08EBB02C019BC1EBAF2
:1078B0008091E10080FF0BC053D280FF08C053D2FB
:1078C0008091D800806202DE19BC85E08EBB809179
:1078D000E10084FF1AC044D284FF17C091DD80917B
:1078E000D8008F7DF3DD8FEEA4DD3AD28F7E8160EC
:1078F0003DD280915301882331F48091E30087FDCC
:1079000002C081E001C084E08EBB8091E10083FF72
:107910000CC026D283FF09C087EF8BDD82E08EBBCF
:107920001092530185DD1FD22ED26F914F910F908F
:107930001F909F918F910FBE0F90189580936100BB
:1079400010926100B1E0B5BF82E085BF81EF85B9DB
:1079500087EE84B91DB8769A10BA83EF81BB82E6B0
:107960008BB982EF8AB980E58CBDBDBDA0E0E4E9AA
:10797000F7E705900D92A035E1F71D92BB30E9F7CE
:10798000000004C07C9B02C06FDD41F573DD78947C
:107990005FDE71F0ABE9B7E0E3E6F7E790E1059071
:1079A0000D929A95E1F7A059BF4FE339B9F7B9DDC8
:1079B00052D02EDD80915201807861F48FB1809594
:1079C000807F66991C9B8460982E1CDE8110BCDD34
:1079D00092FC02C0332062F747DD51F3F89489EB43
:1079E00081DD81E08093E00010926F0010928100B1
:1079F000109285001092840081E085BF15BE2E9AFA
:107A00002F9A2D9A5D9A289A0C940000A4D107C051
:107A100057D102C0C6D239F0A0D182FFFBCF85FF7B
:107A2000F7CF8091F1000895082E83E095D185FD70
:107A300007C08AD102C0B5D269F08FD180FFFBCFD9
:107A40000092F10080915201807221F45D9884E6E9
:107A50008093500108957FD182FF34C180915201FB
:107A6000807221F4289884E680935101CFDF182F8B
:107A7000853431F422248EE7382EE1DC8DE00BC111
:107A8000843511F4C3DFFACF8C34C1F38035B1F300
:107A9000843721F484E4C8DF80E0FDC0813611F42E
:107AA00089E5F9C0813429F4B1DF582EAFDF482EC3
:107AB000E5CF803711F483E5EEC0833539F4E0E596
:107AC000F7E78591B1DFE735E1F7E6C0863521F4C8
:107AD00082E3AADF80E3DFC0863761F481E3669B3F
:107AE0008E5F1C9B8F5FA0DF8FB1809582958F701A
:107AF0008F5BD1C08837A9F489DF80935201289A1F
:107B000084FD28985D9A83FD5D982E9A81FD2E98BC
:107B10002F9A82FD2F982D9A80FD2D9887FD88241D
:107B2000ADCF8A3649F48FE9E6DCC3E0F0DC7CDFD8
:107B3000CA95E1F7E9DCB0C0833731F487E874DF38
:107B400085E972DF8EE1A7C0853639F4E0E8F3E716
:107B50003ED2E058F040E0F791CF823631F489E52B
:107B600063DF80E061DF80E896C0823419F08736F9
:107B700009F07DC033244ADFD82F48DFC82F46DF05
:107B8000082F8354843008F085C0063411F4440C67
:107B9000551CF20110926F001736B9F4033489F4C2
:107BA00083E0A3DCB4DC8EB51EBC3EDF0DB42197B0
:107BB000D1F7AADC08C0063411F4859101C045DC78
:107BC00033DF2197C2F72F014AC00334A9F4E11132
:107BD00004C087DC88ED89DC91DC83DC82E085DC15
:107BE00015DF0DB48EBDCA95D9F7319691DC86DCD0
:107BF000DA9569F72F0131C00634F1F49F01F437AB
:107C0000D8F4E5D119C002DF063461F4C0FB46F0B8
:107C1000F43728F4182E81E087BFE89511243296B6
:107C2000082E0AC0043439F4DF01B370AD59B94FDE
:107C30008D93319601C00DDC21972AF7043431F47D
:107C40002F01F370FE2B49F46CDC07C0063429F4D5
:107C50002F01F901F43708F4B8D18DE0E5DE0634E0
:107C600011F45694479482E080936F0015C08237D8
:107C7000E1E049F08634E0E031F08E34E3E019F0E1
:107C8000813531F4E2E0F0E089E087BF849103C000
:107C90008B3111F08FE3C8DE83E0C7DB55D095FF51
:107CA00003C009C07ED171F058D080FFFBCF4CD00B
:107CB00002C077D139F051D080FFFBCF84E0B5DB33
:107CC0008BE743C00895E4E5F1E067E090915B0144
:107CD00080915C01913231F0913AE1F58132D1F538
:107CE0005ED181C0823271F48191805B8191844048
:107CF00089F580915D0180FD2DC0F89481E080932D
:107D0000E0007ECD803231F54AD14BD1E9F08530AB
:107D1000D9F023D083FD18C082FFF7CF04C081DEE5
:107D20008193615031F09091F3008091F200892BA2
:107D3000B1F7C6DF611549F704C033D129F08530AA
:107D400019F00BD080FFF9CF8EE79091E8008923DE
:107D50008093E800089584E068DB8091E80008954E
:107D60008091E2000895FCDF8E7F80618093E200C5
:107D7000089582E061EC09D083E061E802D084E0FC
:107D800060E842E103C080E060E042E04EDB81E079
:107D900007D01092ED006093EC004093ED00089541
:107DA0009091EB00892B8093EB00089560E0923076
:107DB00029F0913029F4E0E062E102C0E2E16EE3F3
:107DC000F1E0089580915B0188234CF402C0E9D072
:107DD000C1F3C3DF82FFFBCF73CFE3D091F3BDDFED
:107DE00080FFFBCFB1CF40916101509162014617F6
:107DF000510520F0462F611509F4A6DF50E022C09E
:107E0000D0D061F1853051F1A8DF83FD59CFA5DFD6
:107E100082FD21C080FF16C03091F3002091F20056
:107E200006C081918093F10041502F5F3F4F411573
:107E300019F028303105A8F350E02830310509F455
:107E400051E082DF4115E1F65523D1F604C0A9D0F7
:107E500029F0853019F081DF82FFF9CF31CFEBE5D2
:107E6000F1E0DFDD8193E336E1F72DDF76DF83FF9D
:107E700091C080915B0190915C01913009F170F0AB
:107E80009330F1F0953009F444C0963009F456C0AF
:107E9000983009F460C0993059F767C0823841F7CB
:107EA00080915F01C1DA2091EB001092E90077D058
:107EB0002295269521702093F1001092F10052C076
:107EC000882311F08230A1F68F71823089F680917B
:107ED0005D018823D1F420915F01277049F220933E
:107EE000E9008091EB0080FF10C0933011F480E234
:107EF0000BC080E155DF81E0880F2A95E9F7809378
:107F0000EA001092EA0088E04BDF1092E90047D0C7
:107F10002AC0882391F410915D0110680FB7F8947E
:107F20003ED050DF1ADF80FFFDCF1093E300103802
:107F300083E009F482E08EBB0FBF2CC080588230F2
:107F400048F580915D0190915E0130DF603011F164
:107F500026D049DF1FC08038E9F421D08091530139
:107F60008093F100F1DE2EDF15C0882399F4909103
:107F70005D01923078F49093530111D023DF80910A
:107F80005301882321F48091E30091E087FD94E080
:107F90009EBBEFDEE2DE83FF089580E201DF87EF24
:107FA000D4CE8EB388230895A3E6B1E0F437B8F4B5
:107FB0000ED090E40D901D9081E087BFE895329639
:107FC0009A95C1F71124E058F04085E001C083E0A4
:107FD00001D081E187BFE89507B600FCFDCF089589
:067FFA003230D7CFFBDCA2
:00000001FF
